S01600004156523130395F6578616D706C652E7372656340
S11370000C945A380C9464380C9464380C94643896
S11370100C9464380C9464380C9464380C9464387C
S11370200C9464380C9464380C9464380C9464386C
S11370300C9464380C9464380C9464380C9464385C
S11370400C9464380C9464380C9464380C9464384C
S11370500C9464380C9464380C9464380C9464383C
S11370600C9464380C9464380C9464380C9464382C
S11370700C9464380C9464380C9464380C9464381C
S11370800C9464380C9464380C9464380C9464380C
S11370900C9464380C9464380C9464380C946438FC
S11370A00C9464380C9464380C9464380C946438EC
S11370B00C94643811241FBECFEFD8E0DEBFCDBFDF
S11370C00E943C390C94513B0C9400389F92AF922F
S11370D0BF92CF92DF92EF92FF920F931F93CF93C1
S11370E0DF93CDB7DEB7C058D1090FB6F894DEBF31
S11370F00FBECDBF6C018A016534A1F5892B71F0F7
S1137100CE0101967C015C01AC0CBD1C0E94493B84
S1137110D7018D937D01AA16BB06C1F707B600FC03
S1137120FDCFC114D10409F454C0FE0131969F016E
S11371302C0D3D1DD8018C9181BD11968C9182BD81
S1137140819180BDFA9AF99AF999FECFD8018D916F
S11371509C91119701968D939C932E173F0751F79D
S11371608DE03AC0663409F036C0FA01A080B180DF
S1137170AA0CBB1CB182A082992493940E94493B1F
S1137180E82EF12C0E94493BD801ED91FC91F82A9C
S1137190070190925700E8951124CF010296F80157
S11371A091838083F2E0CF1AD10841F725E0F501FD
S11371B020935700E89507B600FCFDCF21E120930A
S11371C05700E89596958795D8018D939C938DE00B
S11371D003C08DE001C08FE3C058DF4F0FB6F894B1
S11371E0DEBF0FBECDBFDF91CF911F910F91FF90F6
S11371F0EF90DF90CF90BF90AF909F9008950F9342
S11372001F93CF93DF938C01EA01653489F488815D
S113721081BD898182BD8881998101969983888302
S1137220F89A80B50E943C3B0150110981F71FC0B8
S11372306634E9F488819981880F991F998388833A
S1137240E881F98184910E943C3BE881F98131967F
S113725084910E943C3B888199810296998388831A
S11372600250110969F79695879599838883DF9170
S1137270CF911F910F9108954F925F926F927F92D9
S11372808F929F92AF92BF92CF92DF92EF92FF9232
S11372900F931F93CF93DF9300D000D0CDB7DEB709
S11372A082E08AB90E94353B1F99BEC10F2EF1E1DD
S11372B0DF2EF02D0F2EF9E0EF2EF02D4424439411
S11372C0512C00E010E00F2EF3E06F2E712CF02D06
S11372D06894882481F8912C0F2EF5E0AF2EF02DC0
S11372E0BB24B3940F2EF3E0FF2EF02D0E94493BF4
S11372F0813621F489E50E943C3BF8CF813481F446
S11373000E94493BC82E0E94493B2C2D30E0322F6D
S11373102227282B3A8329838DE00E943C3BE6CF29
S11373208536B1F41A830983E0E0F0E007B600FC87
S1137330FDCFF0925700E895E058FF4FFA83E983B8
S1137340E11520E7F20791F78DE00E943C3BCECF98
S1137350823651F489E50E943C3B80E00E943C3B2C
S113736080E80E943C3BC2CF8234C9F40E94493B6E
S1137370C82E0E94493B2C2D30E0322F2227282B87
S11373803C832B830E94493B682F8B819C81AE01F7
S11373904F5F5F4F0E9466380E943C3BA7CF873601
S11373A0B9F40E94493BC82E0E94493B2C2D30E081
S11373B0322F2227282B3C832B830E94493B682FA2
S11373C08B819C81AE014F5F5F4F0E94FF388ECF4F
S11373D08235D9F407B600FCFDCFD0925700E8956A
S11373E0E981FA81EE0FFF1F319684910E943C3BA4
S11373F0E981FA81EE0FFF1F84910E943C3B898151
S11374009A8101969A83898371CF833649F40E94C5
S1137410493B90E09C838B838DE00E943C3B66CF8C
S11374208334E9F40E94493B2B813C81382B3C8313
S11374302B8307B600FCFDCF89819A812B813C8187
S1137440FC01EE0FFF1F0901B0925700E8951124CB
S113745001969A8389838DE00E943C3B47CF8D3609
S1137460B9F489819A818115E8E39E0720F08FE3BE
S11374700E943C3B09C007B600FCFDCFFC01EE0FA7
S1137480FF1FA0925700E8958DE00E943C3B2ECF51
S11374908434B9F407B600FCFDCF898181BD8A81AB
S11374A082BD0E94493B80BDFA9AF99AF999FECFB0
S11374B089819A8101969A8389838DE00E943C3B5D
S11374C015CF843671F4898181BD8A8182BDF89A91
S11374D080B50E943C3B89819A8101969A83898375
S11374E005CF8C3679F407B600FCFDCF0E94493BEA
S11374F0E1E0F0E0082EE0925700E8958DE00E946C
S11375003C3BF4CE823751F407B600FCFDCFF201C8
S1137510E092570084910E943C3BE8CE863451F4BB
S113752007B600FCFDCFF801E092570084910E9459
S11375303C3BDCCE8E3451F407B600FCFDCFF301A6
S1137540E092570084910E943C3BD0CE813551F4A7
S113755007B600FCFDCFF401E092570084910E942D
S11375603C3BC4CE803511F08C3421F48DE00E9474
S11375703C3BBCCE853461F407B600FCFDCFD09211
S11375805700E8958DE00E943C3BF8010995AECE8A
S1137590803721F483E50E943C3BA8CE843721F454
S11375A080E00E943C3BA2CE98E8980F923010F005
S11375B0843531F40E94493B8DE00E943C3B96CED9
S11375C08335B1F481E40E943C3B86E50E943C3B58
S11375D082E50E943C3B82E40E943C3B8FE40E9493
S11375E03C3B8FE40E943C3B84E50E943C3B7ECEC6
S11375F0863539F481E30E943C3B85E30E943C3BA1
S113760075CE833751F486E10E943C3B85E90E94A4
S11376103C3B8EE10E943C3B69CE8B3109F466CE43
S11376208FE30E943C3B62CE07B600FCFDCF81E1B4
S113763080935700E895E0E0F0E0099580E090E061
S11376400F900F900F900F90DF91CF911F910F919A
S1137650FF90EF90DF90CF90BF90AF909F908F906E
S11376607F906F905F904F90089588E08093C4005E
S113767088E18093C10008958093C600E0ECF0E0B7
S1137680808186FFFDCFE0ECF0E080818064808320
S11376900895E0ECF0E080818823ECF78091C60047
S10976A00895F894FFCFE9
S90370008C
